:10000000080800209D0E0000630400006704000043
:1000100000000000000000000000000000000000E0
:100020000000000000000000000000006309000064
:100030000000000000000000B30D00007B0E000077
:10004000870E0000C90E0000CB0E0000CD0E000090
:10005000CF0E0000D10E0000D30E0000D50E000020
:10006000D70E0000D90E0000DB0E0000DD0E0000F0
:10007000DF0E0000E10E0000E30E0000E50E0000C0
:10008000E70E0000E90E0000EB0E0000ED0E000090
:10009000EF0E0000F10E0000F30E0000F50E000060
:1000A000F70E0000F90E0000FB0E0000FD0E000030
:1000B000FF0E0000010F0000030F0000050F0000FD
:1000C00010B5002001216B4C226852080A40002A1A
:1000D00002D0012A18D01AE0674A1268120C1207DF
:1000E000120F012A04D00CD3032A07D003D308E04F
:1000F000624A100007E0624A100004E0614A100002
:1001000001E0614A100002E0924A12681000226881
:1001100012095207520F002A0BD0022A0ED00BD31D
:10012000042A0FD00CD3062A12D00FD3072A13D0DB
:1001300013E000F03FF910E040080EE080080CE00A
:10014000C0080AE00C2100F035F906E0000904E0DF
:10015000182100F02FF900E040092168090C8905F9
:10016000890D491C484310BD38B507247A4D2868CD
:100170002040012806D0022809D005280CD00628E6
:100180000FD013E0734800687449086029E0FFF756
:1001900097FF7249086024E0802000026F490860E0
:1001A0001FE0802000026D4908601AE032480068B4
:1001B000000C0007000F012804D00FD3032809D03A
:1001C00004D30BE02D48654908600AE02C486349D8
:1001D000086006E02B486149086002E02A485F4950
:1001E00008602868000A0440002C0BD0022C17D0AD
:1001F0000FD3042C22D01AD3062C29D023D3072CBA
:100200002BD02FE0554C2068012100F0D3F820605E
:100210002EE0524C2068012100F0CCF8206027E04D
:100220004E4C2068012100F0C5F8206020E04B4CC6
:100230002068012100F0BEF8206019E047480168FD
:100240004908016014E045480168890801600FE031
:1002500042480168C90801600AE04048016809098C
:10026000016005E03D4C2068012100F0A3F820600A
:1002700031BD00000C240040042400400024F400A0
:1002800000366E010048E80100127A0070B534486B
:10029000344908603448016820220A43026007217B
:1002A000324A1160324C334D25600022324B1A60C5
:1002B000A0221205284B1A60304A11600321304AEF
:1002C000116030490A68120C0B68DE43B3B29A42DF
:1002D00001D1096800E040214906490E2A4A11600F
:1002E0002A490A68120C0B68DE43B3B29A4201D164
:1002F000096800E08021C9B2254A116001688022A6
:100300000A43026023480168802212010A43026006
:1003100021490A6880235B0213430B601F4A13685C
:100320001F4E1E40166002681E4B13400360086893
:100330001D4A02400A601D480168C02292000A431B
:10034000026001681A4A0A400260FFF70DFF25604B
:1003500070BD0000000000200024004004000020C8
:10036000AAAA0000381000403424004004140140C0
:10037000001401405A5A34120C2400400028004056
:100380000400004040FBFF1F0824004020FBFF1F2B
:1003900014240040382400404C2400404000014018
:1003A000FFFFFBFFFFF7FFFFFFFFFEFF840D004095
:1003B000FFFFFFFC0022030A8B420BD203098B4292
:1003C00019D243088B422ED2411A00D20146524123
:1003D00010467047FF2209023FD012068B4205D318
:1003E000121209028B4201D31212090203098B4235
:1003F00019D300E0090AC3098B4201D3CB01C01A0B
:10040000524183098B4201D38B01C01A52414309E7
:100410008B4201D34B01C01A524103098B4201D3D5
:100420000B01C01A5241C3088B4201D3CB00C01A42
:10043000524183088B4201D38B00C01A52414308BA
:100440008B4201D34B00C01A5241884200D3401A5C
:100450005241CFD201461046704708B500F002F86D
:1004600008BDFEE77047FEE72B490A6802430A60B1
:10047000704702688BB213430360704702688BB207
:100480009A430260704742680B041343436070470D
:1004900042680B049A434260704742688BB2134330
:1004A0004360704742688BB29A43426070478268EB
:1004B0008BB213438360704782688BB29A43826029
:1004C000704730B4C3680C004C4303256C43A3430E
:1004D0000C004C4354431C43C46030BC704730B4E0
:1004E000036A0C004C4303256C43A3430C004C43AC
:1004F00054431C43046230BC704730B4C36A0C00E0
:100500004C4303256C43A3430C004C4354431C430E
:10051000C46230BC7047000034240040F8B50500C8
:100520000C0000200700060001006A461170002C34
:1005300000D1EFE07A498D4214D07A498D4211D032
:1005400079498D420ED079498D420BD078498D4240
:1005500008D078498D4205D077498D4202D06F4945
:100560008D4201D1012100E00100C9B2002900D172
:10057000FEE72168002906D02168802252029142BC
:1005800001D2012100E00100C9B2002900D1FEE73B
:100590006168032908D06168002905D061680129D4
:1005A00002D06168022901D1012100E00100C9B235
:1005B000002900D1FEE7A168012902D0A168002925
:1005C00001D1012100E00100C9B2002900D1FEE7FC
:1005D000E168002908D0E168012905D0E168022915
:1005E00002D0E168032901D1012100E00100C9B274
:1005F000002900D1FEE72169002907D02169802266
:100600005202914202D02169022901D1012100E068
:100610000100C9B2002900D1FEE76169002908D0B4
:100620006169012905D06169022902D06169032944
:1006300001D10120FFE7C0B2002800D1FEE78020F1
:10064000FFF712FF2068F840002860D020680121E1
:10065000B94001400E00002E57D06068032808D131
:1006600031002800FFF70AFF31002800FFF724FFC0
:100670001CE06068002804D131002800FFF7F9FE73
:1006800003E031002800FFF7F9FEA068002804D13C
:1006900031002800FFF710FF03E031002800FFF7CA
:1006A00006FFE26831002800FFF727FF20690028D5
:1006B00008D131002800FFF7EBFE31002800FFF7DA
:1006C000ECFE15E0206980214902884208D1310002
:1006D0002800FFF7E7FE31002800FFF7D4FE07E00F
:1006E00031002800FFF7D4FE31002800FFF7DAFEC2
:1006F0006068022804D1626931002800FFF7EFFE2C
:10070000626831002800FFF7DCFE7F1C9AE70120B9
:100710006946087068460078F2BD0000C00D0040D0
:10072000000C0040400C0040800C0040C00C004019
:10073000000D0040400D0040800D00400168022285
:100740000A4302607047016801220A430260704751
:1007500042698BB213434361704782698BB2134382
:1007600083617047F1B58CB00F00160068462C21EC
:1007700000F0DEF80CA8007800908024640001945A
:100780000020049080218901039102900790069037
:1007900005900890002E02D080208004FFE7099089
:1007A0000A96604D21002800FFF7D7FF5E48FFF74B
:1007B000C5FF320092B23900684600F063F92100AB
:1007C0002800FFF7C5FF0DB0F0BDF1B58CB00F00EC
:1007D000160068462C2100F0ABF80CA800780090B9
:1007E00080246400019400200490802080040990FB
:1007F0000A964C4D21002800FFF7AFFF320092B25D
:100800003900684600F03EF921002800FFF7A0FFFC
:100810000DB0F0BD18B585B06846142100F088F819
:1008200007200090E020C00001900020029080216D
:100830004900039104903C4C6946200000F08CF97B
:100840002000FFF780FF06B010BD10B504000022A5
:1008500000212000C0B2FFF785FF10BDFEB50700E4
:100860000E0015006C46380080B2000A2070380077
:100870006070280080B2000AA0702800E070042296
:1008800069462A20FFF76EFF300080B2000A207010
:10089000300060706846008980B2000AA070684627
:1008A0000089E070042269462B20FFF75BFFF7BD4B
:1008B000F1B5C4B001A81D490CC90CC008390838ED
:1008C000449D0220454300273C00002D26D03E00D9
:1008D00080204000864213D201A80090200003210E
:1008E000FFF768FD022041430098405A641C03A9A9
:1008F000020092B2120A8A5589194870B61CE7E7BD
:10090000FF21891C8D4201D3060000E02E00320039
:1009100003A92C20FFF759FFAD1BD6E745B0F0BD6A
:1009200000000000800C004000080040B80E0000ED
:100930000022FFE71300103906D330B4140015006D
:1009400010393CC0FCD230BC490700D30CC000D5E4
:1009500004C0890002D30280801C002900D50270E7
:100960007047FEE742698BB2134343617047826967
:100970008BB2134383617047016802220A4302600D
:100980007047016801220A4302607047806841098C
:100990000800C007C00F7047C268C1607047426955
:1009A0004161704782698161704738B586B0684699
:1009B0001821FFF7BDFF80246400009402200190FD
:1009C000002102910490059103200390494D69464E
:1009D0002800FFF7A3FD21002800FFF7C8FF0A2029
:1009E00000F07AF921002800FFF7BCFF07B030BD06
:1009F000F0B58BB068461821FFF79AFF06A81421BE
:100A0000FFF796FFCC20800100900224019400257E
:100A10000295049405940326039669463648FFF729
:100A20007DFD8020000100900194029504940594BE
:100A30000396304F69463800FFF770FD8020C000F4
:100A40000090019402950494059503966946380038
:100A5000FFF764FD01200690E020C0000790089594
:100A600009950A95254C06A9200000F075F820008C
:100A7000FFF782FF2000FFF784FF0BB0F0BD204995
:100A800008707047F8B506000C0015001B4F3800C1
:100A9000FFF772FFB16A491E3800FFF77DFF7169E9
:100AA0003800FFF77FFF706A316A89040143B0693B
:100AB0000843F1690143F0680843316901437068F4
:100AC0000843316801430F480160B1683800FFF7FF
:100AD00066FF2800451E80B2002804D02078FFF76A
:100AE000CEFF641CF5E73800FFF750FF0028FAD16D
:100AF0000120F2BD400C0040800C00400008004086
:100B00001C080040100800406F490A6802430A6050
:100B1000704702681202120A0B0613430360704703
:100B200002686A4B13400B43036070470168102250
:100B30000A430260704701681022914301607047C8
:100B40004268634B13400B43436070474268012384
:100B50009A430A4342607047F8B507000C00012031
:100B600006005C4DAF4200D0FEE7616800294AD024
:100B7000616880225200914245D0616880229200D3
:100B8000914240D06168C022920091423BD061689E
:100B90008022D200914236D06168A022D2009142D8
:100BA00031D06168C022D20091422CD06168E0222D
:100BB000D200914227D0616880221201914222D056
:100BC00061689022120191421DD06168A022120139
:100BD000914218D06168B0221201914213D061682D
:100BE000C022120191420ED06168D02212019142BE
:100BF00009D06168E0221201914204D06168F022BC
:100C00001201914201D1010000E00021C9B2002986
:100C100000D1FEE7E168002922D0E168802252007D
:100C200091421DD0E16880229200914218D0E16883
:100C3000C0229200914213D0E1688022D2009142FA
:100C40000ED0E168A022D200914209D0E168C02212
:100C5000D200914204D0E168E022D200914201D159
:100C6000010000E00021C9B2002900D1FEE721699E
:100C7000002902D02169012900D100E00020C0B282
:100C8000002800D1FEE78020FFF73EFF2168280002
:100C9000FFF73FFF61682800FFF742FFA0680128C7
:100CA00003D12800FFF742FF02E02800FFF743FFCF
:100CB000E1682800FFF744FF21692800FFF746FF9D
:100CC0003000C0B2F2BD00003C240040FFF0FFFF46
:100CD000FFF8FFFF0008004010B504002000441E8C
:100CE000002804D0FA20800000F002F8F6E710BDDA
:100CF00010B50400104800681049FFF75BFB44433F
:100D00000F48844202D380246404FFE70D48016841
:100D100004220A430260012102680A430260621E43
:100D2000094B1A600022094B1A600268120C0A4033
:100D3000002AFAD010BD00BF0400002040420F007E
:100D40000100000110E000E014E000E018E000E025
:100D500080B500F02BF800F02AF800F02BF800F036
:100D600027F8FFF745FEFFF720FEFFF753FD0120B0
:100D7000FFF76BFD0520FFF7AFFF1120FFF765FDC3
:100D80007820FFF7A9FF2920FFF75FFD064B1A0027
:100D900000210020FFF762FDC820C002FFF788FD98
:100DA00000F018F8FCE700BF7F02000070477047B2
:100DB0007047FEE780B500F001F801BD0448016806
:100DC00004220A430260016801220A43026070475C
:100DD00010E000E001480249086070475A5A341296
:100DE0000014014030B401220168001D00290FD019
:100DF0000368C31844680830144202D04D466D1E83
:100E000064191D6825601B1D241D091FECD0F8E71F
:100E100030BC704710B5074979441831064C7C4402
:100E2000163404E0081D0A68891888470100A142A9
:100E3000F8D110BD0800000018000000A9FFFFFF56
:100E4000080000007C0000000000002000000000FE
:100E500000F00DF8002801D0FFF7DCFF00BF00BF55
:100E6000002000BF00BFFFF773FF00F002F8012071
:100E7000704780B500F002F801BDFEE7074638462E
:100E800000F002F8FBE7FEE780B500BF00BF024AB2
:100E900011001820ABBEFBE7260002000148804786
:100EA000014800478D020000AD0E000000BF00BFEA
:100EB00000BF00BFFFF7CCFF00F8E0071F000000F5
:100EC00000127A0000127A00FEE7FEE7FEE7FEE776
:100ED000FEE7FEE7FEE7FEE7FEE7FEE7FEE7FEE7EA
:100EE000FEE7FEE7FEE7FEE7FEE7FEE7FEE7FEE7DA
:100EF000FEE7FEE7FEE7FEE7FEE7FEE7FEE7FEE7CA
:060F0000FEE7FEE7FEE73C
:0400000500000EAD3C
:00000001FF
