:020000040000FA
:1000000068100020650100006D0100006F01000014
:1000100000000000000000000000000000000000E0
:10002000000000000000000000000000710100005E
:1000300000000000000000007301000075010000D6
:1000400077010000770100007701000077010000D0
:1000500077010000770100007701000077010000C0
:1000600077010000770100007701000077010000B0
:1000700077010000770100007701000077010000A0
:100080007701000077010000770100007701000090
:100090000F070000770100007701000077010000E2
:1000A0007701000077010000770100007701000070
:1000B0007701000077010000770100007701000060
:1000C00000F002F800F03EF80CA030C80838241800
:1000D0002D18A246671EAB4654465D46AC4201D180
:1000E00000F030F87E460F3E0FCCB6460126334274
:1000F00000D0FB1AA246AB463343184770080000F5
:1001000090080000103A02D378C878C1FAD8520794
:1001100001D330C830C101D504680C6070470000BD
:100120000023002400250026103A01D378C1FBD813
:10013000520700D330C100D50B6070471FB51FBDFB
:1001400010B510BD00F0FAF81146FFF7F7FF00F008
:10015000FAFB00F012F903B4FFF7F2FF03BC00F062
:1001600019F900000748804707480047FEE7FEE707
:10017000FEE7FEE7FEE7FEE704480549054A064BB1
:1001800070470000C5070000C100000068000020A3
:1001900068100020680800206808002001E004C002
:1001A000091F0429FBD28B0701D50280801CC907D7
:1001B00000D00270704700290BD0C30702D0027034
:1001C000401C491E022904D3830702D50280801CEB
:1001D000891EE3E70022EEE70022DFE700220309A1
:1001E0008B422CD3030A8B4211D300239C464EE052
:1001F00003460B433CD4002243088B4231D303090E
:100200008B421CD3030A8B4201D394463FE0C309BF
:100210008B4201D3CB01C01A524183098B4201D3D7
:100220008B01C01A524143098B4201D34B01C01AC2
:10023000524103098B4201D30B01C01A5241C3083A
:100240008B4201D3CB00C01A524183088B4201D3A9
:100250008B00C01A524143088B4201D34B00C01A95
:100260005241411A00D201465241104670475DE0AA
:10027000CA0F00D04942031000D34042534000222D
:100280009C4603098B422DD3030A8B4212D3FC22D6
:10029000890112BA030A8B420CD3890192118B4255
:1002A00008D3890192118B4204D389013AD092116B
:1002B00000E08909C3098B4201D3CB01C01A524126
:1002C00083098B4201D38B01C01A524143098B42EF
:1002D00001D34B01C01A524103098B4201D30B01D8
:1002E000C01A5241C3088B4201D3CB00C01A5241FD
:1002F00083088B4201D38B00C01A5241D9D24308E4
:100300008B4201D34B00C01A5241411A00D2014620
:10031000634652415B10104601D34042002B00D58A
:100320004942704763465B1000D3404201B500204C
:10033000C046C04602BD704770477047754600F022
:1003400025F8AE46050069465346C008C0008546FC
:1003500018B020B5FFF710FF60BC00274908B6466B
:100360000026C0C5C0C5C0C5C0C5C0C5C0C5C0C5C4
:10037000C0C5403D49008D46704710B50446C04693
:10038000C0462046FFF7E7FE10BD0000004870475A
:100390000800002001491820ABBEFEE7260002003D
:1003A000704700000448016904221143016101699A
:1003B000012211430161704700E000E070B504467E
:1003C0007D25ED0002E0284600F004F8641E601C64
:1003D000F9D170BD10B504460F480E490068FFF70B
:1003E000FDFE604301210906884200D908460B49F9
:1003F0000A6904231A430A610A6901231A430A613C
:10040000401E4861002088610869000CC007FBD0CD
:1004100010BD000040420F000400002000E000E09A
:1004200010B5FFF7BFFF10BDF0B5002200297DD049
:100430006B4A904200D0FEE703240A682402A242DD
:1004400009D0D31FFF3BFA3B05D0D31FF93B02D0A5
:10045000002A00D0FEE701234A689B03002A02D04D
:100460009A4200D0FEE707258A68AD02002A19D01B
:100470000126B602B24215D07600B24212D003264F
:10048000B602B2420ED001263603B2420AD0052689
:10049000B602B24206D00326F602B24202D0AA4207
:1004A00000D0FEE70A69002A06D0012A04D0022AF9
:1004B00002D0032A00D0FEE74A69002A06D0082AA3
:1004C00004D0102A02D0182A00D0FEE78A69002A38
:1004D00002D0042A00D0FEE70A6A002A04D0202AAB
:1004E00002D0402A00D0FEE7CA69002A02D0802A42
:1004F00000D0FEE701223B4F7E6B16437E630A6904
:10050000022A0AD00126374A4032D7683743D760DB
:100510000E685768A743374357604A6804689C438E
:10052000144304608A680468AC4300E034E0144378
:100530000460CA68C468240C24041443C4600A69B3
:100540000468A408A400144304600A69002A05D1C1
:100550004A6904681825AC43144304608A69046836
:100560000425AC431443046080240A696504002A0E
:1005700014D06026012A1DD0022A21D0032A28D0B7
:100580004A689A4207D1C9690268A2430A430260D5
:1005900001682943016001221046F0BD4A689A4271
:1005A000F9D1C9690268A2430A430260016829437C
:1005B0000160F0E7096A0268B2430A430260EAE7B1
:1005C000C9690268A2430A430260016829430160C5
:1005D000E1E7096A0268B2430A430260DBE7000010
:1005E0000034014000240040002809D000210160AF
:1005F00041608160C1600161C161016241618161ED
:100600007047000070B50268032A01D90322026016
:10061000CB06DB0E01229A40002901DB144B1A6045
:1006200004688807C00EFF23834000290BDB8E0877
:10063000104DB60075192E689E43A3071B0E83400C
:100640001E432E600DE00D072D0F083DAE080A4D2C
:10065000B6007519EE699E43A3071B0E83401E4327
:10066000EE61002902DB02488038026070BD0000A4
:1006700080E100E000E400E000ED00E00249014814
:10068000086070475A5A34120014014002488169C8
:1006900001221143816170470034014010B58AB0D6
:1006A000242101A8FFF798FD0024009401A8FFF77A
:1006B0009BFF0594019402940320800203900A4852
:1006C00004900794094C01A92046FFF7ADFE0220D3
:1006D000009014216846FFF795FF40206061216972
:1006E000014321610AB010BDE7030000003401405E
:1006F000044841694906C90F002901D040214161E0
:10070000704700000034014070477047704700B5E3
:10071000FFF7EEFF00BD000070B5244D2868244CA3
:100720004007400F01281CD002281DD0E9130528DE
:100730001ED006281ED068680003000F01281BD0B9
:1007400002281CD003281DD01A4860602868400584
:10075000400F030000F0EAF8081C1C1C1C191D21A6
:10076000251C20686060F1E700F094F86060EDE718
:100770006160EBE76160E9E70F486060E6E70F481A
:100780006060E3E70E486060E0E760684008606032
:1007900070BD60688008606070BD6068C00860609F
:1007A00070BD60680009606070BD000000240040FA
:1007B0000000002000127A000024F40000366E01D0
:1007C0000048E801F8B52B49294888632A48416B5D
:1007D000202211434163294C07216160284D256087
:1007E0000022C260052252060260264A11600321DF
:1007F0000205516024490968CB430A0C9BB29A4216
:1008000000D040214906490E81601F494039096ADC
:10081000CB430A0C9BB29A4200D08021C9B24161FD
:10082000416B802211434163816B16013143816327
:1008300011494031CA688B131A43CA60134F3A6892
:100840009B009A433A60826BB2438263CA68881302
:100850008243CA600E48416803221202114341607C
:100860004168120491434160FFF756FF2560F8BDCF
:10087000AAAA00000010004000240040001401401B
:100880005A5A34120028004040FBFF1F400001402C
:10089000800D004010B500201E4CE1688907C90F8B
:1008A00002D0012913D110E060680003000F012875
:1008B00005D0022805D0032805D0174807E01748BF
:1008C00005E0174803E0174801E017480068E168B1
:1008D0004906490F0B0000F029F808160507090B17
:1008E0000F11151640080EE080080CE0C0080AE061
:1008F0000C21FFF773FC06E0000904E01821FFF764
:100900006DFC00E04009E1688901890D491C414303
:10091000084610BD0024004000127A000024F400B4
:1009200000366E010048E8010000002030B4744633
:10093000641E2578641CAB4200D21D46635D5B00DB
:10094000E31830BC1847FFF7DFFEFFF7DFFEFFF7C5
:1009500067FDFFF7DAFEFFF7A1FEFFF797FE6420C1
:10096000FFF72CFDFFF78AFEFCE700008C09000072
:1009700000000020080000000401000094090000AD
:1009800008000020601000002001000000127A0022
:0409900000127A00D7
:04000005000000C136
:00000001FF
